{
  "contractName": "WarehouseReceipt",
  "abi": [
    {
      "inputs": [
        {
          "internalType": "string",
          "name": "name",
          "type": "string"
        },
        {
          "internalType": "string",
          "name": "symbol",
          "type": "string"
        }
      ],
      "stateMutability": "nonpayable",
      "type": "constructor"
    },
    {
      "anonymous": false,
      "inputs": [
        {
          "indexed": true,
          "internalType": "address",
          "name": "owner",
          "type": "address"
        },
        {
          "indexed": true,
          "internalType": "address",
          "name": "approved",
          "type": "address"
        },
        {
          "indexed": true,
          "internalType": "uint256",
          "name": "tokenId",
          "type": "uint256"
        }
      ],
      "name": "Approval",
      "type": "event"
    },
    {
      "anonymous": false,
      "inputs": [
        {
          "indexed": true,
          "internalType": "address",
          "name": "owner",
          "type": "address"
        },
        {
          "indexed": true,
          "internalType": "address",
          "name": "operator",
          "type": "address"
        },
        {
          "indexed": false,
          "internalType": "bool",
          "name": "approved",
          "type": "bool"
        }
      ],
      "name": "ApprovalForAll",
      "type": "event"
    },
    {
      "anonymous": false,
      "inputs": [
        {
          "indexed": false,
          "internalType": "uint256",
          "name": "loanId",
          "type": "uint256"
        },
        {
          "indexed": false,
          "internalType": "uint256",
          "name": "duration",
          "type": "uint256"
        },
        {
          "indexed": false,
          "internalType": "uint256",
          "name": "amount",
          "type": "uint256"
        },
        {
          "indexed": false,
          "internalType": "string",
          "name": "details",
          "type": "string"
        }
      ],
      "name": "LoanCreated",
      "type": "event"
    },
    {
      "anonymous": false,
      "inputs": [
        {
          "indexed": true,
          "internalType": "address",
          "name": "from",
          "type": "address"
        },
        {
          "indexed": true,
          "internalType": "address",
          "name": "to",
          "type": "address"
        },
        {
          "indexed": true,
          "internalType": "uint256",
          "name": "tokenId",
          "type": "uint256"
        }
      ],
      "name": "Transfer",
      "type": "event"
    },
    {
      "inputs": [
        {
          "internalType": "uint256",
          "name": "",
          "type": "uint256"
        }
      ],
      "name": "approvedLoan",
      "outputs": [
        {
          "internalType": "address",
          "name": "",
          "type": "address"
        }
      ],
      "stateMutability": "view",
      "type": "function",
      "constant": true
    },
    {
      "inputs": [
        {
          "internalType": "address",
          "name": "",
          "type": "address"
        }
      ],
      "name": "balances",
      "outputs": [
        {
          "internalType": "uint256",
          "name": "",
          "type": "uint256"
        }
      ],
      "stateMutability": "view",
      "type": "function",
      "constant": true
    },
    {
      "inputs": [
        {
          "internalType": "address",
          "name": "",
          "type": "address"
        }
      ],
      "name": "loanIncites",
      "outputs": [
        {
          "internalType": "uint256",
          "name": "",
          "type": "uint256"
        }
      ],
      "stateMutability": "view",
      "type": "function",
      "constant": true
    },
    {
      "inputs": [
        {
          "internalType": "uint256",
          "name": "",
          "type": "uint256"
        }
      ],
      "name": "loanIndex",
      "outputs": [
        {
          "internalType": "uint256",
          "name": "id",
          "type": "uint256"
        },
        {
          "internalType": "uint256",
          "name": "duration",
          "type": "uint256"
        },
        {
          "internalType": "uint256",
          "name": "amount",
          "type": "uint256"
        },
        {
          "internalType": "string",
          "name": "details",
          "type": "string"
        }
      ],
      "stateMutability": "view",
      "type": "function",
      "constant": true
    },
    {
      "inputs": [
        {
          "internalType": "uint256",
          "name": "",
          "type": "uint256"
        }
      ],
      "name": "loanToId",
      "outputs": [
        {
          "internalType": "address",
          "name": "",
          "type": "address"
        }
      ],
      "stateMutability": "view",
      "type": "function",
      "constant": true
    },
    {
      "inputs": [
        {
          "internalType": "uint256",
          "name": "",
          "type": "uint256"
        }
      ],
      "name": "loans",
      "outputs": [
        {
          "internalType": "uint256",
          "name": "id",
          "type": "uint256"
        },
        {
          "internalType": "uint256",
          "name": "duration",
          "type": "uint256"
        },
        {
          "internalType": "uint256",
          "name": "amount",
          "type": "uint256"
        },
        {
          "internalType": "string",
          "name": "details",
          "type": "string"
        }
      ],
      "stateMutability": "view",
      "type": "function",
      "constant": true
    },
    {
      "inputs": [],
      "name": "name",
      "outputs": [
        {
          "internalType": "string",
          "name": "",
          "type": "string"
        }
      ],
      "stateMutability": "view",
      "type": "function",
      "constant": true
    },
    {
      "inputs": [],
      "name": "newLoanId",
      "outputs": [
        {
          "internalType": "uint256",
          "name": "",
          "type": "uint256"
        }
      ],
      "stateMutability": "view",
      "type": "function",
      "constant": true
    },
    {
      "inputs": [
        {
          "internalType": "bytes4",
          "name": "interfaceId",
          "type": "bytes4"
        }
      ],
      "name": "supportsInterface",
      "outputs": [
        {
          "internalType": "bool",
          "name": "",
          "type": "bool"
        }
      ],
      "stateMutability": "view",
      "type": "function",
      "constant": true
    },
    {
      "inputs": [],
      "name": "symbol",
      "outputs": [
        {
          "internalType": "string",
          "name": "",
          "type": "string"
        }
      ],
      "stateMutability": "view",
      "type": "function",
      "constant": true
    },
    {
      "inputs": [
        {
          "internalType": "uint256",
          "name": "tokenId",
          "type": "uint256"
        }
      ],
      "name": "tokenURI",
      "outputs": [
        {
          "internalType": "string",
          "name": "",
          "type": "string"
        }
      ],
      "stateMutability": "view",
      "type": "function",
      "constant": true
    },
    {
      "inputs": [
        {
          "internalType": "uint256",
          "name": "id",
          "type": "uint256"
        },
        {
          "internalType": "uint256",
          "name": "duration",
          "type": "uint256"
        },
        {
          "internalType": "uint256",
          "name": "amount",
          "type": "uint256"
        },
        {
          "internalType": "string",
          "name": "details",
          "type": "string"
        }
      ],
      "name": "createLoan",
      "outputs": [],
      "stateMutability": "nonpayable",
      "type": "function"
    },
    {
      "inputs": [
        {
          "internalType": "uint256",
          "name": "id",
          "type": "uint256"
        }
      ],
      "name": "getLoan",
      "outputs": [
        {
          "internalType": "uint256",
          "name": "",
          "type": "uint256"
        },
        {
          "internalType": "uint256",
          "name": "",
          "type": "uint256"
        },
        {
          "internalType": "uint256",
          "name": "",
          "type": "uint256"
        },
        {
          "internalType": "string",
          "name": "",
          "type": "string"
        }
      ],
      "stateMutability": "view",
      "type": "function",
      "constant": true
    },
    {
      "inputs": [],
      "name": "totalSupply",
      "outputs": [
        {
          "internalType": "uint256",
          "name": "",
          "type": "uint256"
        }
      ],
      "stateMutability": "view",
      "type": "function",
      "constant": true
    },
    {
      "inputs": [
        {
          "internalType": "address",
          "name": "owner",
          "type": "address"
        }
      ],
      "name": "balanceOf",
      "outputs": [
        {
          "internalType": "uint256",
          "name": "balance",
          "type": "uint256"
        }
      ],
      "stateMutability": "view",
      "type": "function",
      "constant": true
    },
    {
      "inputs": [
        {
          "internalType": "uint256",
          "name": "tokenId",
          "type": "uint256"
        }
      ],
      "name": "ownerOf",
      "outputs": [
        {
          "internalType": "address",
          "name": "owner",
          "type": "address"
        }
      ],
      "stateMutability": "view",
      "type": "function",
      "constant": true
    },
    {
      "inputs": [
        {
          "internalType": "address",
          "name": "to",
          "type": "address"
        },
        {
          "internalType": "uint256",
          "name": "tokenId",
          "type": "uint256"
        }
      ],
      "name": "transfer",
      "outputs": [],
      "stateMutability": "nonpayable",
      "type": "function"
    },
    {
      "inputs": [
        {
          "internalType": "address",
          "name": "_approved",
          "type": "address"
        },
        {
          "internalType": "uint256",
          "name": "_tokenId",
          "type": "uint256"
        }
      ],
      "name": "approve",
      "outputs": [],
      "stateMutability": "nonpayable",
      "type": "function"
    },
    {
      "inputs": [
        {
          "internalType": "address",
          "name": "operator",
          "type": "address"
        },
        {
          "internalType": "bool",
          "name": "_approved",
          "type": "bool"
        }
      ],
      "name": "setApprovalForAll",
      "outputs": [],
      "stateMutability": "nonpayable",
      "type": "function"
    },
    {
      "inputs": [
        {
          "internalType": "uint256",
          "name": "_tokenId",
          "type": "uint256"
        }
      ],
      "name": "getApproved",
      "outputs": [
        {
          "internalType": "address",
          "name": "",
          "type": "address"
        }
      ],
      "stateMutability": "view",
      "type": "function",
      "constant": true
    },
    {
      "inputs": [
        {
          "internalType": "address",
          "name": "_owner",
          "type": "address"
        },
        {
          "internalType": "address",
          "name": "_operator",
          "type": "address"
        }
      ],
      "name": "isApprovedForAll",
      "outputs": [
        {
          "internalType": "bool",
          "name": "",
          "type": "bool"
        }
      ],
      "stateMutability": "view",
      "type": "function",
      "constant": true
    },
    {
      "inputs": [
        {
          "internalType": "uint256",
          "name": "receiptId",
          "type": "uint256"
        },
        {
          "internalType": "uint256",
          "name": "amount",
          "type": "uint256"
        },
        {
          "internalType": "uint256",
          "name": "collateral",
          "type": "uint256"
        },
        {
          "internalType": "address",
          "name": "_owner",
          "type": "address"
        },
        {
          "internalType": "address",
          "name": "_operator",
          "type": "address"
        }
      ],
      "name": "mintNFT",
      "outputs": [
        {
          "internalType": "bool",
          "name": "",
          "type": "bool"
        }
      ],
      "stateMutability": "view",
      "type": "function",
      "constant": true
    },
    {
      "inputs": [
        {
          "internalType": "address",
          "name": "_from",
          "type": "address"
        },
        {
          "internalType": "address",
          "name": "_to",
          "type": "address"
        },
        {
          "internalType": "uint256",
          "name": "_tokenId",
          "type": "uint256"
        }
      ],
      "name": "safeTransferFrom",
      "outputs": [],
      "stateMutability": "nonpayable",
      "type": "function"
    },
    {
      "inputs": [
        {
          "internalType": "address",
          "name": "_from",
          "type": "address"
        },
        {
          "internalType": "address",
          "name": "_to",
          "type": "address"
        },
        {
          "internalType": "uint256",
          "name": "_tokenId",
          "type": "uint256"
        },
        {
          "internalType": "bytes",
          "name": "data",
          "type": "bytes"
        }
      ],
      "name": "safeTransferFrom",
      "outputs": [],
      "stateMutability": "nonpayable",
      "type": "function"
    },
    {
      "inputs": [
        {
          "internalType": "uint256",
          "name": "amount",
          "type": "uint256"
        }
      ],
      "name": "calculateFee",
      "outputs": [
        {
          "internalType": "uint256",
          "name": "",
          "type": "uint256"
        }
      ],
      "stateMutability": "pure",
      "type": "function",
      "constant": true
    },
    {
      "inputs": [
        {
          "internalType": "address",
          "name": "_from",
          "type": "address"
        },
        {
          "internalType": "address",
          "name": "_to",
          "type": "address"
        },
        {
          "internalType": "uint256",
          "name": "_tokenId",
          "type": "uint256"
        }
      ],
      "name": "transferFrom",
      "outputs": [],
      "stateMutability": "nonpayable",
      "type": "function"
    }
  ],
  "bytecode": "0x60806040523480156200001157600080fd5b50604051620033b2380380620033b28339818101604052810190620000379190620001a3565b818181600090805190602001906200005192919062000075565b5080600190805190602001906200006a92919062000075565b5050505050620003ac565b8280546200008390620002bd565b90600052602060002090601f016020900481019282620000a75760008555620000f3565b82601f10620000c257805160ff1916838001178555620000f3565b82800160010185558215620000f3579182015b82811115620000f2578251825591602001919060010190620000d5565b5b50905062000102919062000106565b5090565b5b808211156200012157600081600090555060010162000107565b5090565b60006200013c620001368462000251565b62000228565b9050828152602081018484840111156200015b576200015a6200038c565b5b6200016884828562000287565b509392505050565b600082601f83011262000188576200018762000387565b5b81516200019a84826020860162000125565b91505092915050565b60008060408385031215620001bd57620001bc62000396565b5b600083015167ffffffffffffffff811115620001de57620001dd62000391565b5b620001ec8582860162000170565b925050602083015167ffffffffffffffff81111562000210576200020f62000391565b5b6200021e8582860162000170565b9150509250929050565b60006200023462000247565b9050620002428282620002f3565b919050565b6000604051905090565b600067ffffffffffffffff8211156200026f576200026e62000358565b5b6200027a826200039b565b9050602081019050919050565b60005b83811015620002a75780820151818401526020810190506200028a565b83811115620002b7576000848401525b50505050565b60006002820490506001821680620002d657607f821691505b60208210811415620002ed57620002ec62000329565b5b50919050565b620002fe826200039b565b810181811067ffffffffffffffff8211171562000320576200031f62000358565b5b80604052505050565b7f4e487b7100000000000000000000000000000000000000000000000000000000600052602260045260246000fd5b7f4e487b7100000000000000000000000000000000000000000000000000000000600052604160045260246000fd5b600080fd5b600080fd5b600080fd5b600080fd5b6000601f19601f8301169050919050565b612ff680620003bc6000396000f3fe608060405234801561001057600080fd5b506004361061018e5760003560e01c806370a08231116100de578063a9059cbb11610097578063c87b56dd11610071578063c87b56dd146104f7578063e1ec3c6814610527578063e985e9c51461055a578063fdff92051461058a5761018e565b8063a9059cbb1461048f578063ac21b8af146104ab578063b88d4fde146104db5761018e565b806370a082311461039557806370b44206146103c557806395d89b41146103f557806399a5d74714610413578063a22cb46514610443578063a4f2c49d1461045f5761018e565b806315d9e96b1161014b57806327e235e31161012557806327e235e3146102e657806342842e0e14610316578063504006ca146103325780636352211e146103655761018e565b806315d9e96b1461029057806318160ddd146102ac57806323b872dd146102ca5761018e565b806301ffc9a71461019357806306fdde03146101c3578063081812fc146101e1578063095ea7b3146102115780631439669b1461022d578063157fb4dd14610260575b600080fd5b6101ad60048036038101906101a89190612415565b6105a8565b6040516101ba91906127f0565b60405180910390f35b6101cb61068a565b6040516101d8919061280b565b60405180910390f35b6101fb60048036038101906101f6919061246f565b61071c565b6040516102089190612760565b60405180910390f35b61022b600480360381019061022691906123a8565b61076a565b005b6102476004803603810190610242919061246f565b61091d565b6040516102579493929190612908565b60405180910390f35b61027a6004803603810190610275919061249c565b6109d5565b60405161028791906127f0565b60405180910390f35b6102aa60048036038101906102a59190612517565b610a84565b005b6102b4610a96565b6040516102c191906128ed565b60405180910390f35b6102e460048036038101906102df9190612292565b610aa3565b005b61030060048036038101906102fb9190612225565b610d5e565b60405161030d91906128ed565b60405180910390f35b610330600480360381019061032b9190612292565b610d76565b005b61034c6004803603810190610347919061246f565b610d96565b60405161035c9493929190612908565b60405180910390f35b61037f600480360381019061037a919061246f565b610ea2565b60405161038c9190612760565b60405180910390f35b6103af60048036038101906103aa9190612225565b610edf565b6040516103bc91906128ed565b60405180910390f35b6103df60048036038101906103da919061246f565b610f28565b6040516103ec9190612760565b60405180910390f35b6103fd610f5b565b60405161040a919061280b565b60405180910390f35b61042d6004803603810190610428919061246f565b610fed565b60405161043a91906128ed565b60405180910390f35b61045d60048036038101906104589190612368565b61101e565b005b61047960048036038101906104749190612225565b61113c565b60405161048691906128ed565b60405180910390f35b6104a960048036038101906104a491906123a8565b611154565b005b6104c560048036038101906104c0919061246f565b6112e9565b6040516104d29190612760565b60405180910390f35b6104f560048036038101906104f091906122e5565b61131c565b005b610511600480360381019061050c919061246f565b611343565b60405161051e919061280b565b60405180910390f35b610541600480360381019061053c919061246f565b611495565b6040516105519493929190612908565b60405180910390f35b610574600480360381019061056f9190612252565b61155d565b60405161058191906127f0565b60405180910390f35b6105926115f1565b60405161059f91906128ed565b60405180910390f35b60007f80ac58cd000000000000000000000000000000000000000000000000000000007bffffffffffffffffffffffffffffffffffffffffffffffffffffffff1916827bffffffffffffffffffffffffffffffffffffffffffffffffffffffff1916148061067357507f5b5e139f000000000000000000000000000000000000000000000000000000007bffffffffffffffffffffffffffffffffffffffffffffffffffffffff1916827bffffffffffffffffffffffffffffffffffffffffffffffffffffffff1916145b806106835750610682826115f7565b5b9050919050565b60606000805461069990612be9565b80601f01602080910402602001604051908101604052809291908181526020018280546106c590612be9565b80156107125780601f106106e757610100808354040283529160200191610712565b820191906000526020600020905b8154815290600101906020018083116106f557829003601f168201915b5050505050905090565b6000600780549050821061072f57600080fd5b600d600083815260200190815260200160002060009054906101000a900473ffffffffffffffffffffffffffffffffffffffff169050919050565b81818173ffffffffffffffffffffffffffffffffffffffff16600c600083815260200190815260200160002060009054906101000a900473ffffffffffffffffffffffffffffffffffffffff1673ffffffffffffffffffffffffffffffffffffffff161461080d576040517f08c379a00000000000000000000000000000000000000000000000000000000081526004016108049061286d565b60405180910390fd5b83600073ffffffffffffffffffffffffffffffffffffffff168173ffffffffffffffffffffffffffffffffffffffff16141561087e576040517f08c379a00000000000000000000000000000000000000000000000000000000081526004016108759061284d565b60405180910390fd5b6108888585611661565b838573ffffffffffffffffffffffffffffffffffffffff16600c600087815260200190815260200160002060009054906101000a900473ffffffffffffffffffffffffffffffffffffffff1673ffffffffffffffffffffffffffffffffffffffff167f8c5be1e5ebec7d5bd14f71427d1e84f3dd0314c0f7b2291e5b200ac8c7c3b92560405160405180910390a45050505050565b600960205280600052604060002060009150905080600001549080600101549080600201549080600301805461095290612be9565b80601f016020809104026020016040519081016040528092919081815260200182805461097e90612be9565b80156109cb5780601f106109a0576101008083540402835291602001916109cb565b820191906000526020600020905b8154815290600101906020018083116109ae57829003601f168201915b5050505050905084565b60008086116109e357600080fd5b8484116109ef57600080fd5b600e60008473ffffffffffffffffffffffffffffffffffffffff1673ffffffffffffffffffffffffffffffffffffffff16815260200190815260200160002060008373ffffffffffffffffffffffffffffffffffffffff1673ffffffffffffffffffffffffffffffffffffffff16815260200190815260200160002060009054906101000a900460ff16905095945050505050565b610a90848484846116b7565b50505050565b6000600780549050905090565b82818173ffffffffffffffffffffffffffffffffffffffff16600c600083815260200190815260200160002060009054906101000a900473ffffffffffffffffffffffffffffffffffffffff1673ffffffffffffffffffffffffffffffffffffffff1614610b46576040517f08c379a0000000000000000000000000000000000000000000000000000000008152600401610b3d9061286d565b60405180910390fd5b83600073ffffffffffffffffffffffffffffffffffffffff168173ffffffffffffffffffffffffffffffffffffffff161415610bb7576040517f08c379a0000000000000000000000000000000000000000000000000000000008152600401610bae9061284d565b60405180910390fd5b6000600c600086815260200190815260200160002060009054906101000a900473ffffffffffffffffffffffffffffffffffffffff1690508073ffffffffffffffffffffffffffffffffffffffff168673ffffffffffffffffffffffffffffffffffffffff161415610c2857600080fd5b8673ffffffffffffffffffffffffffffffffffffffff163373ffffffffffffffffffffffffffffffffffffffff161480610c685750610c6733866117a0565b5b80610cfa57503073ffffffffffffffffffffffffffffffffffffffff1663e985e9c582336040518363ffffffff1660e01b8152600401610ca992919061277b565b60206040518083038186803b158015610cc157600080fd5b505afa158015610cd5573d6000803e3d6000fd5b505050506040513d601f19601f82011682018060405250810190610cf991906123e8565b5b610d0357600080fd5b6007805490508510610d4a576040517f08c379a0000000000000000000000000000000000000000000000000000000008152600401610d41906128cd565b60405180910390fd5b610d5587878761180c565b50505050505050565b600a6020528060005260406000206000915090505481565b610d918383836040518060200160405280600081525061131c565b505050565b60008060006060600060078681548110610db357610db2612d53565b5b9060005260206000209060040201604051806080016040529081600082015481526020016001820154815260200160028201548152602001600382018054610dfa90612be9565b80601f0160208091040260200160405190810160405280929190818152602001828054610e2690612be9565b8015610e735780601f10610e4857610100808354040283529160200191610e73565b820191906000526020600020905b815481529060010190602001808311610e5657829003601f168201915b505050505081525050905080600001518160200151826040015183606001519450945094509450509193509193565b6000600c600083815260200190815260200160002060009054906101000a900473ffffffffffffffffffffffffffffffffffffffff169050919050565b6000600b60008373ffffffffffffffffffffffffffffffffffffffff1673ffffffffffffffffffffffffffffffffffffffff168152602001908152602001600020549050919050565b600c6020528060005260406000206000915054906101000a900473ffffffffffffffffffffffffffffffffffffffff1681565b606060018054610f6a90612be9565b80601f0160208091040260200160405190810160405280929190818152602001828054610f9690612be9565b8015610fe35780601f10610fb857610100808354040283529160200191610fe3565b820191906000526020600020905b815481529060010190602001808311610fc657829003601f168201915b5050505050905090565b60006110176064611009612710856119b590919063ffffffff16565b6119cb90919063ffffffff16565b9050919050565b81600073ffffffffffffffffffffffffffffffffffffffff168173ffffffffffffffffffffffffffffffffffffffff16141561108f576040517f08c379a00000000000000000000000000000000000000000000000000000000081526004016110869061284d565b60405180910390fd5b3373ffffffffffffffffffffffffffffffffffffffff168373ffffffffffffffffffffffffffffffffffffffff1614156110c857600080fd5b6110d283836119e1565b8273ffffffffffffffffffffffffffffffffffffffff163373ffffffffffffffffffffffffffffffffffffffff167f17307eab39ab6107e8899845ad3d59bd9653f200f220920489ca2b5937696c318460405161112f91906127f0565b60405180910390a3505050565b600b6020528060005260406000206000915090505481565b33818173ffffffffffffffffffffffffffffffffffffffff16600c600083815260200190815260200160002060009054906101000a900473ffffffffffffffffffffffffffffffffffffffff1673ffffffffffffffffffffffffffffffffffffffff16146111f7576040517f08c379a00000000000000000000000000000000000000000000000000000000081526004016111ee9061286d565b60405180910390fd5b83600073ffffffffffffffffffffffffffffffffffffffff168173ffffffffffffffffffffffffffffffffffffffff161415611268576040517f08c379a000000000000000000000000000000000000000000000000000000000815260040161125f9061284d565b60405180910390fd5b3073ffffffffffffffffffffffffffffffffffffffff168573ffffffffffffffffffffffffffffffffffffffff1614156112d7576040517f08c379a00000000000000000000000000000000000000000000000000000000081526004016112ce9061282d565b60405180910390fd5b6112e233868661180c565b5050505050565b600d6020528060005260406000206000915054906101000a900473ffffffffffffffffffffffffffffffffffffffff1681565b61132833858585611a79565b61133157600080fd5b61133d84848484611c14565b50505050565b606061134e82611c3a565b61138d576040517f08c379a00000000000000000000000000000000000000000000000000000000081526004016113849061288d565b60405180910390fd5b60006006600084815260200190815260200160002080546113ad90612be9565b80601f01602080910402602001604051908101604052809291908181526020018280546113d990612be9565b80156114265780601f106113fb57610100808354040283529160200191611426565b820191906000526020600020905b81548152906001019060200180831161140957829003601f168201915b505050505090506000611437611ca6565b905060008151141561144d578192505050611490565b60008251111561148257808260405160200161146a92919061273c565b60405160208183030381529060405292505050611490565b61148b84611cbd565b925050505b919050565b600781815481106114a557600080fd5b90600052602060002090600402016000915090508060000154908060010154908060020154908060030180546114da90612be9565b80601f016020809104026020016040519081016040528092919081815260200182805461150690612be9565b80156115535780601f1061152857610100808354040283529160200191611553565b820191906000526020600020905b81548152906001019060200180831161153657829003601f168201915b5050505050905084565b6000600e60008473ffffffffffffffffffffffffffffffffffffffff1673ffffffffffffffffffffffffffffffffffffffff16815260200190815260200160002060008373ffffffffffffffffffffffffffffffffffffffff1673ffffffffffffffffffffffffffffffffffffffff16815260200190815260200160002060009054906101000a900460ff16905092915050565b60085481565b60007f01ffc9a7000000000000000000000000000000000000000000000000000000007bffffffffffffffffffffffffffffffffffffffffffffffffffffffff1916827bffffffffffffffffffffffffffffffffffffffffffffffffffffffff1916149050919050565b81600d600083815260200190815260200160002060006101000a81548173ffffffffffffffffffffffffffffffffffffffff021916908373ffffffffffffffffffffffffffffffffffffffff1602179055505050565b6000604051806080016040528086815260200185815260200184815260200183815250905060078190806001815401808255809150506001900390600052602060002090600402016000909190919091506000820151816000015560208201518160010155604082015181600201556060820151816003019080519060200190611742929190612024565b50505061175b6001600854611d6490919063ffffffff16565b507fbba6bb7471625b3ee88fef3cd3c2f54f4aead1e22e6ac34f14afeceac35f6236858585856040516117919493929190612908565b60405180910390a15050505050565b60008273ffffffffffffffffffffffffffffffffffffffff16600d600084815260200190815260200160002060009054906101000a900473ffffffffffffffffffffffffffffffffffffffff1673ffffffffffffffffffffffffffffffffffffffff1614905092915050565b61185f6001600a60008573ffffffffffffffffffffffffffffffffffffffff1673ffffffffffffffffffffffffffffffffffffffff16815260200190815260200160002054611d6490919063ffffffff16565b50600c600082815260200190815260200160002060009054906101000a900473ffffffffffffffffffffffffffffffffffffffff169150600073ffffffffffffffffffffffffffffffffffffffff168373ffffffffffffffffffffffffffffffffffffffff16146119555761191d6001600a60008673ffffffffffffffffffffffffffffffffffffffff1673ffffffffffffffffffffffffffffffffffffffff16815260200190815260200160002054611d7a90919063ffffffff16565b50600d600082815260200190815260200160002060006101000a81549073ffffffffffffffffffffffffffffffffffffffff02191690555b808273ffffffffffffffffffffffffffffffffffffffff168473ffffffffffffffffffffffffffffffffffffffff167fddf252ad1be2c89b69c2b068fc378daa952ba7f163c4a11628f55a4df523b3ef60405160405180910390a4505050565b600081836119c39190612a74565b905092915050565b600081836119d99190612aa5565b905092915050565b80600e60003373ffffffffffffffffffffffffffffffffffffffff1673ffffffffffffffffffffffffffffffffffffffff16815260200190815260200160002060008473ffffffffffffffffffffffffffffffffffffffff1673ffffffffffffffffffffffffffffffffffffffff16815260200190815260200160002060006101000a81548160ff0219169083151502179055505050565b60006007805490508210611a8c57600080fd5b600073ffffffffffffffffffffffffffffffffffffffff168373ffffffffffffffffffffffffffffffffffffffff161415611ac657600080fd5b6000600c600084815260200190815260200160002060009054906101000a900473ffffffffffffffffffffffffffffffffffffffff1690508073ffffffffffffffffffffffffffffffffffffffff168473ffffffffffffffffffffffffffffffffffffffff161415611b3757600080fd5b8473ffffffffffffffffffffffffffffffffffffffff168673ffffffffffffffffffffffffffffffffffffffff161480611b775750611b7686846117a0565b5b80611c0957503073ffffffffffffffffffffffffffffffffffffffff1663e985e9c582886040518363ffffffff1660e01b8152600401611bb892919061277b565b60206040518083038186803b158015611bd057600080fd5b505afa158015611be4573d6000803e3d6000fd5b505050506040513d601f19601f82011682018060405250810190611c0891906123e8565b5b915050949350505050565b611c1f84848461180c565b611c2b84848484611d90565b611c3457600080fd5b50505050565b60008073ffffffffffffffffffffffffffffffffffffffff166002600084815260200190815260200160002060009054906101000a900473ffffffffffffffffffffffffffffffffffffffff1673ffffffffffffffffffffffffffffffffffffffff1614159050919050565b606060405180602001604052806000815250905090565b6060611cc882611c3a565b611d07576040517f08c379a0000000000000000000000000000000000000000000000000000000008152600401611cfe906128ad565b60405180910390fd5b6000611d11611ca6565b90506000815111611d315760405180602001604052806000815250611d5c565b80611d3b84611eaa565b604051602001611d4c92919061273c565b6040516020818303038152906040525b915050919050565b60008183611d729190612a1e565b905092915050565b60008183611d889190612aff565b905092915050565b6000611d9b8461200b565b611da85760019050611ea2565b60008473ffffffffffffffffffffffffffffffffffffffff1663150b7a02338887876040518563ffffffff1660e01b8152600401611de994939291906127a4565b602060405180830381600087803b158015611e0357600080fd5b505af1158015611e17573d6000803e3d6000fd5b505050506040513d601f19601f82011682018060405250810190611e3b9190612442565b90507f150b7a023d4804d13e8c85fb27262cb750cf6ba9f9dd3bb30d90f482ceeb4b1f7bffffffffffffffffffffffffffffffffffffffffffffffffffffffff1916817bffffffffffffffffffffffffffffffffffffffffffffffffffffffff1916149150505b949350505050565b60606000821415611ef2576040518060400160405280600181526020017f30000000000000000000000000000000000000000000000000000000000000008152509050612006565b600082905060005b60008214611f24578080611f0d90612c4c565b915050600a82611f1d9190612a74565b9150611efa565b60008167ffffffffffffffff811115611f4057611f3f612d82565b5b6040519080825280601f01601f191660200182016040528015611f725781602001600182028036833780820191505090505b5090505b60008514611fff57600182611f8b9190612aff565b9150600a85611f9a9190612c95565b6030611fa69190612a1e565b60f81b818381518110611fbc57611fbb612d53565b5b60200101907effffffffffffffffffffffffffffffffffffffffffffffffffffffffffffff1916908160001a905350600a85611ff89190612a74565b9450611f76565b8093505050505b919050565b600080823b905060008163ffffffff1611915050919050565b82805461203090612be9565b90600052602060002090601f0160209004810192826120525760008555612099565b82601f1061206b57805160ff1916838001178555612099565b82800160010185558215612099579182015b8281111561209857825182559160200191906001019061207d565b5b5090506120a691906120aa565b5090565b5b808211156120c35760008160009055506001016120ab565b5090565b60006120da6120d584612979565b612954565b9050828152602081018484840111156120f6576120f5612db6565b5b612101848285612ba7565b509392505050565b600061211c612117846129aa565b612954565b90508281526020810184848401111561213857612137612db6565b5b612143848285612ba7565b509392505050565b60008135905061215a81612f64565b92915050565b60008135905061216f81612f7b565b92915050565b60008151905061218481612f7b565b92915050565b60008135905061219981612f92565b92915050565b6000815190506121ae81612f92565b92915050565b600082601f8301126121c9576121c8612db1565b5b81356121d98482602086016120c7565b91505092915050565b600082601f8301126121f7576121f6612db1565b5b8135612207848260208601612109565b91505092915050565b60008135905061221f81612fa9565b92915050565b60006020828403121561223b5761223a612dc0565b5b60006122498482850161214b565b91505092915050565b6000806040838503121561226957612268612dc0565b5b60006122778582860161214b565b92505060206122888582860161214b565b9150509250929050565b6000806000606084860312156122ab576122aa612dc0565b5b60006122b98682870161214b565b93505060206122ca8682870161214b565b92505060406122db86828701612210565b9150509250925092565b600080600080608085870312156122ff576122fe612dc0565b5b600061230d8782880161214b565b945050602061231e8782880161214b565b935050604061232f87828801612210565b925050606085013567ffffffffffffffff8111156123505761234f612dbb565b5b61235c878288016121b4565b91505092959194509250565b6000806040838503121561237f5761237e612dc0565b5b600061238d8582860161214b565b925050602061239e85828601612160565b9150509250929050565b600080604083850312156123bf576123be612dc0565b5b60006123cd8582860161214b565b92505060206123de85828601612210565b9150509250929050565b6000602082840312156123fe576123fd612dc0565b5b600061240c84828501612175565b91505092915050565b60006020828403121561242b5761242a612dc0565b5b60006124398482850161218a565b91505092915050565b60006020828403121561245857612457612dc0565b5b60006124668482850161219f565b91505092915050565b60006020828403121561248557612484612dc0565b5b600061249384828501612210565b91505092915050565b600080600080600060a086880312156124b8576124b7612dc0565b5b60006124c688828901612210565b95505060206124d788828901612210565b94505060406124e888828901612210565b93505060606124f98882890161214b565b925050608061250a8882890161214b565b9150509295509295909350565b6000806000806080858703121561253157612530612dc0565b5b600061253f87828801612210565b945050602061255087828801612210565b935050604061256187828801612210565b925050606085013567ffffffffffffffff81111561258257612581612dbb565b5b61258e878288016121e2565b91505092959194509250565b6125a381612b33565b82525050565b6125b281612b45565b82525050565b60006125c3826129db565b6125cd81856129f1565b93506125dd818560208601612bb6565b6125e681612dc5565b840191505092915050565b60006125fc826129e6565b6126068185612a02565b9350612616818560208601612bb6565b61261f81612dc5565b840191505092915050565b6000612635826129e6565b61263f8185612a13565b935061264f818560208601612bb6565b80840191505092915050565b6000612668602383612a02565b915061267382612dd6565b604082019050919050565b600061268b601783612a02565b915061269682612e25565b602082019050919050565b60006126ae602683612a02565b91506126b982612e4e565b604082019050919050565b60006126d1603183612a02565b91506126dc82612e9d565b604082019050919050565b60006126f4602f83612a02565b91506126ff82612eec565b604082019050919050565b6000612717601283612a02565b915061272282612f3b565b602082019050919050565b61273681612b9d565b82525050565b6000612748828561262a565b9150612754828461262a565b91508190509392505050565b6000602082019050612775600083018461259a565b92915050565b6000604082019050612790600083018561259a565b61279d602083018461259a565b9392505050565b60006080820190506127b9600083018761259a565b6127c6602083018661259a565b6127d3604083018561272d565b81810360608301526127e581846125b8565b905095945050505050565b600060208201905061280560008301846125a9565b92915050565b6000602082019050818103600083015261282581846125f1565b905092915050565b600060208201905081810360008301526128468161265b565b9050919050565b600060208201905081810360008301526128668161267e565b9050919050565b60006020820190508181036000830152612886816126a1565b9050919050565b600060208201905081810360008301526128a6816126c4565b9050919050565b600060208201905081810360008301526128c6816126e7565b9050919050565b600060208201905081810360008301526128e68161270a565b9050919050565b6000602082019050612902600083018461272d565b92915050565b600060808201905061291d600083018761272d565b61292a602083018661272d565b612937604083018561272d565b818103606083015261294981846125f1565b905095945050505050565b600061295e61296f565b905061296a8282612c1b565b919050565b6000604051905090565b600067ffffffffffffffff82111561299457612993612d82565b5b61299d82612dc5565b9050602081019050919050565b600067ffffffffffffffff8211156129c5576129c4612d82565b5b6129ce82612dc5565b9050602081019050919050565b600081519050919050565b600081519050919050565b600082825260208201905092915050565b600082825260208201905092915050565b600081905092915050565b6000612a2982612b9d565b9150612a3483612b9d565b9250827fffffffffffffffffffffffffffffffffffffffffffffffffffffffffffffffff03821115612a6957612a68612cc6565b5b828201905092915050565b6000612a7f82612b9d565b9150612a8a83612b9d565b925082612a9a57612a99612cf5565b5b828204905092915050565b6000612ab082612b9d565b9150612abb83612b9d565b9250817fffffffffffffffffffffffffffffffffffffffffffffffffffffffffffffffff0483118215151615612af457612af3612cc6565b5b828202905092915050565b6000612b0a82612b9d565b9150612b1583612b9d565b925082821015612b2857612b27612cc6565b5b828203905092915050565b6000612b3e82612b7d565b9050919050565b60008115159050919050565b60007fffffffff0000000000000000000000000000000000000000000000000000000082169050919050565b600073ffffffffffffffffffffffffffffffffffffffff82169050919050565b6000819050919050565b82818337600083830152505050565b60005b83811015612bd4578082015181840152602081019050612bb9565b83811115612be3576000848401525b50505050565b60006002820490506001821680612c0157607f821691505b60208210811415612c1557612c14612d24565b5b50919050565b612c2482612dc5565b810181811067ffffffffffffffff82111715612c4357612c42612d82565b5b80604052505050565b6000612c5782612b9d565b91507fffffffffffffffffffffffffffffffffffffffffffffffffffffffffffffffff821415612c8a57612c89612cc6565b5b600182019050919050565b6000612ca082612b9d565b9150612cab83612b9d565b925082612cbb57612cba612cf5565b5b828206905092915050565b7f4e487b7100000000000000000000000000000000000000000000000000000000600052601160045260246000fd5b7f4e487b7100000000000000000000000000000000000000000000000000000000600052601260045260246000fd5b7f4e487b7100000000000000000000000000000000000000000000000000000000600052602260045260246000fd5b7f4e487b7100000000000000000000000000000000000000000000000000000000600052603260045260246000fd5b7f4e487b7100000000000000000000000000000000000000000000000000000000600052604160045260246000fd5b600080fd5b600080fd5b600080fd5b600080fd5b6000601f19601f8301169050919050565b7f43616e6e6f74207472616e7366657220746f20697473206f776e20636f6e747260008201527f6163740000000000000000000000000000000000000000000000000000000000602082015250565b7f43616e6e6f7420757365207a65726f2061646472657373000000000000000000600082015250565b7f43616e206f6e6c792062652063616c6c656420627920636c61696d616e74206f60008201527f66206c6f616e0000000000000000000000000000000000000000000000000000602082015250565b7f45524337323155524953746f726167653a2055524920717565727920666f722060008201527f6e6f6e6578697374656e7420746f6b656e000000000000000000000000000000602082015250565b7f4552433732314d657461646174613a2055524920717565727920666f72206e6f60008201527f6e6578697374656e7420746f6b656e0000000000000000000000000000000000602082015250565b7f546f6b656e204944206e6f742056414c49440000000000000000000000000000600082015250565b612f6d81612b33565b8114612f7857600080fd5b50565b612f8481612b45565b8114612f8f57600080fd5b50565b612f9b81612b51565b8114612fa657600080fd5b50565b612fb281612b9d565b8114612fbd57600080fd5b5056fea2646970667358221220fea907305130f74099a758f9b8bbcf7df99ca5dca84448a3b91785a09f347db964736f6c63430008060033",
  "immutableReferences": {},
  "source": "// SPDX-License-Identifier: MIT\npragma solidity ^0.8.6;\n\nimport \"@openzeppelin/contracts/token/ERC721/extensions/ERC721URIStorage.sol\";\nimport \"@openzeppelin/contracts/utils/math/SafeMath.sol\";\nimport \"@openzeppelin/contracts/token/ERC721/IERC721Receiver.sol\";\n\ncontract WarehouseReceipt is ERC721URIStorage {\n    using SafeMath for uint256;\n\n    struct Receipt {\n        uint256 warehouseId;\n    }\n\n    struct Loan {\n        uint256 id;\n        uint256 duration;\n        uint256 amount;\n        string details;\n    }\n\n    Loan[] public loans;\n\n    uint256 public newLoanId;\n    bytes4 internal constant MAGIC_ERC721_RECEIVED =\n        bytes4(keccak256(\"onERC721Received(address,address,uint256,bytes)\"));\n\n    bytes4 private constant _INTERFACE_ID_ERC721 = 0x80ac58cd;\n    bytes4 private constant _INTERFACE_ID_ERC165 = 0x01ffc9a7;\n\n    mapping(uint256 => Loan) public loanIndex;\n    mapping(address => uint256) public balances;\n    mapping(address => uint256) public loanIncites;\n    mapping(uint256 => address) public loanToId;\n    mapping(uint256 => address) public approvedLoan;\n    mapping(address => mapping(address => bool))\n        private _collateralManagerApproval;\n\n    event LoanCreated(\n        uint256 loanId,\n        uint256 duration,\n        uint256 amount,\n        string details\n    );\n\n    constructor(string memory name, string memory symbol)\n        ERC721(name, symbol)\n    {}\n\n    function createLoan(\n        uint256 id,\n        uint256 duration,\n        uint256 amount,\n        string memory details\n    ) external {\n        _createLoan(id, duration, amount, details);\n    }\n\n    function getLoan(uint256 id)\n        external\n        view\n        returns (\n            uint256,\n            uint256,\n            uint256,\n            string memory\n        )\n    {\n        Loan memory loan = loans[id];\n        return (loan.id, loan.duration, loan.amount, loan.details);\n    }\n\n    function totalSupply() external view returns (uint256) {\n        return loans.length;\n    }\n\n    function balanceOf(address owner)\n        public\n        view\n        override\n        returns (uint256 balance)\n    {\n        return loanIncites[owner];\n    }\n\n    function ownerOf(uint256 tokenId)\n        public\n        view\n        override\n        returns (address owner)\n    {\n        return loanToId[tokenId];\n    }\n\n    /* \n        When you write require statements, ALWAYS include an error message at the end.\n        The compiler can run into issues later when migrating the smart contracts.\n     */\n\n    function transfer(address to, uint256 tokenId)\n        external\n        isOwner(msg.sender, tokenId)\n        noZeroAddress(to)\n    {\n        require(to != address(this), \"Cannot transfer to its own contract\");\n        _transfer(msg.sender, to, tokenId);\n    }\n\n    function approve(address _approved, uint256 _tokenId)\n        public\n        override\n        isOwner(_approved, _tokenId)\n        noZeroAddress(_approved)\n    {\n        _approve(_approved, _tokenId);\n        emit Approval(loanToId[_tokenId], _approved, _tokenId);\n    }\n\n    function setApprovalForAll(address operator, bool _approved)\n        public\n        override\n        noZeroAddress(operator)\n    {\n        require(operator != msg.sender);\n        _setApprovalForAll(operator, _approved);\n        emit ApprovalForAll(msg.sender, operator, _approved);\n    }\n\n    function getApproved(uint256 _tokenId)\n        public\n        view\n        override\n        returns (address)\n    {\n        require(_tokenId < loans.length);\n        return approvedLoan[_tokenId];\n    }\n\n    function isApprovedForAll(address _owner, address _operator)\n        public\n        view\n        override\n        returns (bool)\n    {\n        return _collateralManagerApproval[_owner][_operator];\n    }\n\n    function mintNFT(\n        uint256 receiptId,\n        uint256 amount,\n        uint256 collateral,\n        address _owner,\n        address _operator\n    ) external view returns (bool) {\n        require(receiptId > 0);\n        require(collateral > amount);\n        return _collateralManagerApproval[_owner][_operator];\n    }\n\n    function safeTransferFrom(\n        address _from,\n        address _to,\n        uint256 _tokenId\n    ) public override {\n        safeTransferFrom(_from, _to, _tokenId, \"\");\n    }\n\n    function safeTransferFrom(\n        address _from,\n        address _to,\n        uint256 _tokenId,\n        bytes memory data\n    ) public override {\n        require(_isApprovedOrOwner(msg.sender, _from, _to, _tokenId));\n        _safeTransfer(_from, _to, _tokenId, data);\n    }\n\n    function calculateFee(uint256 amount) external pure returns (uint256) {\n        //100 basis points = 1 pct\n        return (amount.div(10000)).mul(100);\n    }\n\n    function transferFrom(\n        address _from,\n        address _to,\n        uint256 _tokenId\n    ) public override isOwner(_from, _tokenId) noZeroAddress(_to) {\n        address owner = loanToId[_tokenId];\n        require(_to != owner);\n        require(\n            msg.sender == _from ||\n                approvedFor(msg.sender, _tokenId) ||\n                this.isApprovedForAll(owner, msg.sender)\n        );\n        require(_tokenId < loans.length, \"Token ID not VALID\");\n        _transfer(_from, _to, _tokenId);\n    }\n\n    function approvedFor(address claimant, uint256 tokenId)\n        internal\n        view\n        returns (bool)\n    {\n        return approvedLoan[tokenId] == claimant;\n    }\n\n    //Front End function in which Collateral Manager: approves, appraises, and documents asset\n    function _setApprovalForAll(address _operator, bool _approved) internal {\n        _collateralManagerApproval[msg.sender][_operator] = _approved;\n    }\n\n    //Assets must be in warehouse\n    function _checkERC721Support(\n        address _from,\n        address _to,\n        uint256 _tokenId,\n        bytes memory _data\n    ) internal returns (bool) {\n        if (!_isContract(_to)) {\n            return true;\n        }\n        bytes4 returnData = IERC721Receiver(_to).onERC721Received(\n            msg.sender,\n            _from,\n            _tokenId,\n            _data\n        );\n        return returnData == MAGIC_ERC721_RECEIVED;\n    }\n\n    function _isContract(address _to) internal view returns (bool) {\n        uint32 size;\n        assembly {\n            size := extcodesize(_to)\n        }\n        return size > 0;\n    }\n\n    function _transfer(\n        address _from,\n        address _to,\n        uint256 _tokenId\n    ) internal override {\n        balances[_to].add(1);\n        _to = loanToId[_tokenId];\n        if (_from != address(0)) {\n            balances[_from].sub(1);\n            delete approvedLoan[_tokenId];\n        }\n        emit Transfer(_from, _to, _tokenId);\n    }\n\n    function _approve(address _approved, uint256 _tokenId) internal override {\n        approvedLoan[_tokenId] = _approved;\n    }\n\n    function _isApprovedOrOwner(\n        address spender,\n        address _from,\n        address _to,\n        uint256 _tokenId\n    ) private view returns (bool) {\n        require(_tokenId < loans.length);\n        require(_to != address(0));\n        address owner = loanToId[_tokenId];\n        require(_to != owner);\n        //Error at approve(spender, _tokenId)\n        return (spender == _from ||\n            approvedFor(spender, _tokenId) ||\n            this.isApprovedForAll(owner, spender));\n    }\n\n    function _safeTransfer(\n        address from,\n        address to,\n        uint256 tokenId,\n        bytes memory _data\n    ) internal override {\n        _transfer(from, to, tokenId);\n        require(_checkERC721Support(from, to, tokenId, _data));\n    }\n\n    function _createLoan(\n        uint256 id,\n        uint256 duration,\n        uint256 amount,\n        string memory details\n    ) internal {\n        Loan memory _loan = Loan(id, duration, amount, details);\n        loans.push(_loan);\n        newLoanId.add(1);\n        emit LoanCreated(id, duration, amount, details);\n    }\n\n    modifier noZeroAddress(address _addr) {\n        require(_addr != address(0), \"Cannot use zero address\");\n        _;\n    }\n\n    modifier isOwner(address _claimant, uint256 _tokenId) {\n        require(\n            loanToId[_tokenId] == _claimant,\n            \"Can only be called by claimant of loan\"\n        );\n        _;\n    }\n}\n",
  "sourcePath": "/Users/heyyehudes/Documents/Farmbit_Demo/NFT/contracts/WarehouseReceipt.sol",
  "compiler": {
    "name": "solc",
    "version": "0.8.6+commit.11564f7e.Emscripten.clang"
  },
  "schemaVersion": "3.3.1",
  "updatedAt": "2021-08-16T21:51:47.979Z",
  "networkType": "ethereum",
  "devdoc": {
    "kind": "dev",
    "methods": {
      "balanceOf(address)": {
        "details": "See {IERC721-balanceOf}."
      },
      "name()": {
        "details": "See {IERC721Metadata-name}."
      },
      "ownerOf(uint256)": {
        "details": "See {IERC721-ownerOf}."
      },
      "supportsInterface(bytes4)": {
        "details": "See {IERC165-supportsInterface}."
      },
      "symbol()": {
        "details": "See {IERC721Metadata-symbol}."
      },
      "tokenURI(uint256)": {
        "details": "See {IERC721Metadata-tokenURI}."
      }
    },
    "version": 1
  },
  "userdoc": {
    "kind": "user",
    "methods": {},
    "version": 1
  }
}