{
  "contractName": "WarehouseReceipt",
  "abi": [
    {
      "inputs": [
        {
          "internalType": "string",
          "name": "name",
          "type": "string"
        },
        {
          "internalType": "string",
          "name": "symbol",
          "type": "string"
        }
      ],
      "stateMutability": "nonpayable",
      "type": "constructor"
    },
    {
      "anonymous": false,
      "inputs": [
        {
          "indexed": true,
          "internalType": "address",
          "name": "owner",
          "type": "address"
        },
        {
          "indexed": true,
          "internalType": "address",
          "name": "approved",
          "type": "address"
        },
        {
          "indexed": true,
          "internalType": "uint256",
          "name": "tokenId",
          "type": "uint256"
        }
      ],
      "name": "Approval",
      "type": "event"
    },
    {
      "anonymous": false,
      "inputs": [
        {
          "indexed": true,
          "internalType": "address",
          "name": "owner",
          "type": "address"
        },
        {
          "indexed": true,
          "internalType": "address",
          "name": "operator",
          "type": "address"
        },
        {
          "indexed": false,
          "internalType": "bool",
          "name": "approved",
          "type": "bool"
        }
      ],
      "name": "ApprovalForAll",
      "type": "event"
    },
    {
      "anonymous": false,
      "inputs": [
        {
          "indexed": false,
          "internalType": "uint256",
          "name": "loanId",
          "type": "uint256"
        },
        {
          "indexed": false,
          "internalType": "uint256",
          "name": "duration",
          "type": "uint256"
        },
        {
          "indexed": false,
          "internalType": "uint256",
          "name": "amount",
          "type": "uint256"
        },
        {
          "indexed": false,
          "internalType": "string",
          "name": "details",
          "type": "string"
        }
      ],
      "name": "LoanCreated",
      "type": "event"
    },
    {
      "anonymous": false,
      "inputs": [
        {
          "indexed": true,
          "internalType": "address",
          "name": "from",
          "type": "address"
        },
        {
          "indexed": true,
          "internalType": "address",
          "name": "to",
          "type": "address"
        },
        {
          "indexed": true,
          "internalType": "uint256",
          "name": "tokenId",
          "type": "uint256"
        }
      ],
      "name": "Transfer",
      "type": "event"
    },
    {
      "inputs": [
        {
          "internalType": "uint256",
          "name": "",
          "type": "uint256"
        }
      ],
      "name": "approvedLoan",
      "outputs": [
        {
          "internalType": "address",
          "name": "",
          "type": "address"
        }
      ],
      "stateMutability": "view",
      "type": "function",
      "constant": true
    },
    {
      "inputs": [
        {
          "internalType": "address",
          "name": "",
          "type": "address"
        }
      ],
      "name": "balances",
      "outputs": [
        {
          "internalType": "uint256",
          "name": "",
          "type": "uint256"
        }
      ],
      "stateMutability": "view",
      "type": "function",
      "constant": true
    },
    {
      "inputs": [
        {
          "internalType": "address",
          "name": "",
          "type": "address"
        }
      ],
      "name": "loanIncites",
      "outputs": [
        {
          "internalType": "uint256",
          "name": "",
          "type": "uint256"
        }
      ],
      "stateMutability": "view",
      "type": "function",
      "constant": true
    },
    {
      "inputs": [
        {
          "internalType": "uint256",
          "name": "",
          "type": "uint256"
        }
      ],
      "name": "loanIndex",
      "outputs": [
        {
          "internalType": "uint256",
          "name": "id",
          "type": "uint256"
        },
        {
          "internalType": "uint256",
          "name": "duration",
          "type": "uint256"
        },
        {
          "internalType": "uint256",
          "name": "amount",
          "type": "uint256"
        },
        {
          "internalType": "string",
          "name": "details",
          "type": "string"
        }
      ],
      "stateMutability": "view",
      "type": "function",
      "constant": true
    },
    {
      "inputs": [
        {
          "internalType": "uint256",
          "name": "",
          "type": "uint256"
        }
      ],
      "name": "loanToId",
      "outputs": [
        {
          "internalType": "address",
          "name": "",
          "type": "address"
        }
      ],
      "stateMutability": "view",
      "type": "function",
      "constant": true
    },
    {
      "inputs": [
        {
          "internalType": "uint256",
          "name": "",
          "type": "uint256"
        }
      ],
      "name": "loans",
      "outputs": [
        {
          "internalType": "uint256",
          "name": "id",
          "type": "uint256"
        },
        {
          "internalType": "uint256",
          "name": "duration",
          "type": "uint256"
        },
        {
          "internalType": "uint256",
          "name": "amount",
          "type": "uint256"
        },
        {
          "internalType": "string",
          "name": "details",
          "type": "string"
        }
      ],
      "stateMutability": "view",
      "type": "function",
      "constant": true
    },
    {
      "inputs": [],
      "name": "name",
      "outputs": [
        {
          "internalType": "string",
          "name": "",
          "type": "string"
        }
      ],
      "stateMutability": "view",
      "type": "function",
      "constant": true
    },
    {
      "inputs": [],
      "name": "newLoanId",
      "outputs": [
        {
          "internalType": "uint256",
          "name": "",
          "type": "uint256"
        }
      ],
      "stateMutability": "view",
      "type": "function",
      "constant": true
    },
    {
      "inputs": [],
      "name": "state",
      "outputs": [
        {
          "internalType": "enum WarehouseReceipt.LoanState",
          "name": "",
          "type": "uint8"
        }
      ],
      "stateMutability": "view",
      "type": "function",
      "constant": true
    },
    {
      "inputs": [
        {
          "internalType": "bytes4",
          "name": "interfaceId",
          "type": "bytes4"
        }
      ],
      "name": "supportsInterface",
      "outputs": [
        {
          "internalType": "bool",
          "name": "",
          "type": "bool"
        }
      ],
      "stateMutability": "view",
      "type": "function",
      "constant": true
    },
    {
      "inputs": [],
      "name": "symbol",
      "outputs": [
        {
          "internalType": "string",
          "name": "",
          "type": "string"
        }
      ],
      "stateMutability": "view",
      "type": "function",
      "constant": true
    },
    {
      "inputs": [
        {
          "internalType": "uint256",
          "name": "tokenId",
          "type": "uint256"
        }
      ],
      "name": "tokenURI",
      "outputs": [
        {
          "internalType": "string",
          "name": "",
          "type": "string"
        }
      ],
      "stateMutability": "view",
      "type": "function",
      "constant": true
    },
    {
      "inputs": [
        {
          "internalType": "uint256",
          "name": "id",
          "type": "uint256"
        },
        {
          "internalType": "uint256",
          "name": "duration",
          "type": "uint256"
        },
        {
          "internalType": "uint256",
          "name": "amount",
          "type": "uint256"
        },
        {
          "internalType": "string",
          "name": "details",
          "type": "string"
        }
      ],
      "name": "createLoan",
      "outputs": [],
      "stateMutability": "nonpayable",
      "type": "function"
    },
    {
      "inputs": [
        {
          "internalType": "uint256",
          "name": "id",
          "type": "uint256"
        }
      ],
      "name": "getLoan",
      "outputs": [
        {
          "internalType": "uint256",
          "name": "",
          "type": "uint256"
        },
        {
          "internalType": "uint256",
          "name": "",
          "type": "uint256"
        },
        {
          "internalType": "uint256",
          "name": "",
          "type": "uint256"
        },
        {
          "internalType": "string",
          "name": "",
          "type": "string"
        }
      ],
      "stateMutability": "view",
      "type": "function",
      "constant": true
    },
    {
      "inputs": [],
      "name": "totalSupply",
      "outputs": [
        {
          "internalType": "uint256",
          "name": "",
          "type": "uint256"
        }
      ],
      "stateMutability": "view",
      "type": "function",
      "constant": true
    },
    {
      "inputs": [
        {
          "internalType": "address",
          "name": "owner",
          "type": "address"
        }
      ],
      "name": "balanceOf",
      "outputs": [
        {
          "internalType": "uint256",
          "name": "balance",
          "type": "uint256"
        }
      ],
      "stateMutability": "view",
      "type": "function",
      "constant": true
    },
    {
      "inputs": [
        {
          "internalType": "uint256",
          "name": "tokenId",
          "type": "uint256"
        }
      ],
      "name": "ownerOf",
      "outputs": [
        {
          "internalType": "address",
          "name": "owner",
          "type": "address"
        }
      ],
      "stateMutability": "view",
      "type": "function",
      "constant": true
    },
    {
      "inputs": [
        {
          "internalType": "address",
          "name": "to",
          "type": "address"
        },
        {
          "internalType": "uint256",
          "name": "tokenId",
          "type": "uint256"
        }
      ],
      "name": "transfer",
      "outputs": [],
      "stateMutability": "nonpayable",
      "type": "function"
    },
    {
      "inputs": [
        {
          "internalType": "address",
          "name": "_approved",
          "type": "address"
        },
        {
          "internalType": "uint256",
          "name": "_tokenId",
          "type": "uint256"
        }
      ],
      "name": "approve",
      "outputs": [],
      "stateMutability": "nonpayable",
      "type": "function"
    },
    {
      "inputs": [
        {
          "internalType": "address",
          "name": "operator",
          "type": "address"
        },
        {
          "internalType": "bool",
          "name": "_approved",
          "type": "bool"
        }
      ],
      "name": "setApprovalForAll",
      "outputs": [],
      "stateMutability": "nonpayable",
      "type": "function"
    },
    {
      "inputs": [
        {
          "internalType": "uint256",
          "name": "_tokenId",
          "type": "uint256"
        }
      ],
      "name": "getApproved",
      "outputs": [
        {
          "internalType": "address",
          "name": "",
          "type": "address"
        }
      ],
      "stateMutability": "view",
      "type": "function",
      "constant": true
    },
    {
      "inputs": [
        {
          "internalType": "address",
          "name": "_owner",
          "type": "address"
        },
        {
          "internalType": "address",
          "name": "_operator",
          "type": "address"
        }
      ],
      "name": "isApprovedForAll",
      "outputs": [
        {
          "internalType": "bool",
          "name": "",
          "type": "bool"
        }
      ],
      "stateMutability": "view",
      "type": "function",
      "constant": true
    },
    {
      "inputs": [
        {
          "internalType": "uint256",
          "name": "receiptId",
          "type": "uint256"
        },
        {
          "internalType": "uint256",
          "name": "amount",
          "type": "uint256"
        },
        {
          "internalType": "uint256",
          "name": "collateral",
          "type": "uint256"
        },
        {
          "internalType": "address",
          "name": "_owner",
          "type": "address"
        },
        {
          "internalType": "address",
          "name": "_operator",
          "type": "address"
        }
      ],
      "name": "mintNFT",
      "outputs": [
        {
          "internalType": "bool",
          "name": "",
          "type": "bool"
        }
      ],
      "stateMutability": "view",
      "type": "function",
      "constant": true
    },
    {
      "inputs": [
        {
          "internalType": "address",
          "name": "_from",
          "type": "address"
        },
        {
          "internalType": "address",
          "name": "_to",
          "type": "address"
        },
        {
          "internalType": "uint256",
          "name": "_tokenId",
          "type": "uint256"
        }
      ],
      "name": "safeTransferFrom",
      "outputs": [],
      "stateMutability": "nonpayable",
      "type": "function"
    },
    {
      "inputs": [
        {
          "internalType": "address",
          "name": "_from",
          "type": "address"
        },
        {
          "internalType": "address",
          "name": "_to",
          "type": "address"
        },
        {
          "internalType": "uint256",
          "name": "_tokenId",
          "type": "uint256"
        },
        {
          "internalType": "bytes",
          "name": "data",
          "type": "bytes"
        }
      ],
      "name": "safeTransferFrom",
      "outputs": [],
      "stateMutability": "nonpayable",
      "type": "function"
    },
    {
      "inputs": [
        {
          "internalType": "uint256",
          "name": "amount",
          "type": "uint256"
        }
      ],
      "name": "calculateFee",
      "outputs": [
        {
          "internalType": "uint256",
          "name": "",
          "type": "uint256"
        }
      ],
      "stateMutability": "pure",
      "type": "function",
      "constant": true
    },
    {
      "inputs": [
        {
          "internalType": "address",
          "name": "_from",
          "type": "address"
        },
        {
          "internalType": "address",
          "name": "_to",
          "type": "address"
        },
        {
          "internalType": "uint256",
          "name": "_tokenId",
          "type": "uint256"
        }
      ],
      "name": "transferFrom",
      "outputs": [],
      "stateMutability": "nonpayable",
      "type": "function"
    }
  ],
  "bytecode": "0x60806040523480156200001157600080fd5b50604051620034bb380380620034bb8339818101604052810190620000379190620001a3565b818181600090805190602001906200005192919062000075565b5080600190805190602001906200006a92919062000075565b5050505050620003ac565b8280546200008390620002bd565b90600052602060002090601f016020900481019282620000a75760008555620000f3565b82601f10620000c257805160ff1916838001178555620000f3565b82800160010185558215620000f3579182015b82811115620000f2578251825591602001919060010190620000d5565b5b50905062000102919062000106565b5090565b5b808211156200012157600081600090555060010162000107565b5090565b60006200013c620001368462000251565b62000228565b9050828152602081018484840111156200015b576200015a6200038c565b5b6200016884828562000287565b509392505050565b600082601f83011262000188576200018762000387565b5b81516200019a84826020860162000125565b91505092915050565b60008060408385031215620001bd57620001bc62000396565b5b600083015167ffffffffffffffff811115620001de57620001dd62000391565b5b620001ec8582860162000170565b925050602083015167ffffffffffffffff81111562000210576200020f62000391565b5b6200021e8582860162000170565b9150509250929050565b60006200023462000247565b9050620002428282620002f3565b919050565b6000604051905090565b600067ffffffffffffffff8211156200026f576200026e62000358565b5b6200027a826200039b565b9050602081019050919050565b60005b83811015620002a75780820151818401526020810190506200028a565b83811115620002b7576000848401525b50505050565b60006002820490506001821680620002d657607f821691505b60208210811415620002ed57620002ec62000329565b5b50919050565b620002fe826200039b565b810181811067ffffffffffffffff8211171562000320576200031f62000358565b5b80604052505050565b7f4e487b7100000000000000000000000000000000000000000000000000000000600052602260045260246000fd5b7f4e487b7100000000000000000000000000000000000000000000000000000000600052604160045260246000fd5b600080fd5b600080fd5b600080fd5b600080fd5b6000601f19601f8301169050919050565b6130ff80620003bc6000396000f3fe608060405234801561001057600080fd5b50600436106101a95760003560e01c806370a08231116100f9578063ac21b8af11610097578063c87b56dd11610071578063c87b56dd14610530578063e1ec3c6814610560578063e985e9c514610593578063fdff9205146105c3576101a9565b8063ac21b8af146104c6578063b88d4fde146104f6578063c19d93fb14610512576101a9565b806399a5d747116100d357806399a5d7471461042e578063a22cb4651461045e578063a4f2c49d1461047a578063a9059cbb146104aa576101a9565b806370a08231146103b057806370b44206146103e057806395d89b4114610410576101a9565b806315d9e96b1161016657806327e235e31161014057806327e235e31461030157806342842e0e14610331578063504006ca1461034d5780636352211e14610380576101a9565b806315d9e96b146102ab57806318160ddd146102c757806323b872dd146102e5576101a9565b806301ffc9a7146101ae57806306fdde03146101de578063081812fc146101fc578063095ea7b31461022c5780631439669b14610248578063157fb4dd1461027b575b600080fd5b6101c860048036038101906101c3919061248c565b6105e1565b6040516101d59190612876565b60405180910390f35b6101e66106c3565b6040516101f391906128ac565b60405180910390f35b610216600480360381019061021191906124e6565b610755565b60405161022391906127e6565b60405180910390f35b6102466004803603810190610241919061241f565b6107a3565b005b610262600480360381019061025d91906124e6565b610956565b60405161027294939291906129a9565b60405180910390f35b61029560048036038101906102909190612513565b610a0e565b6040516102a29190612876565b60405180910390f35b6102c560048036038101906102c0919061258e565b610abd565b005b6102cf610afa565b6040516102dc919061298e565b60405180910390f35b6102ff60048036038101906102fa9190612309565b610b07565b005b61031b6004803603810190610316919061229c565b610dc2565b604051610328919061298e565b60405180910390f35b61034b60048036038101906103469190612309565b610dda565b005b610367600480360381019061036291906124e6565b610dfa565b60405161037794939291906129a9565b60405180910390f35b61039a600480360381019061039591906124e6565b610f06565b6040516103a791906127e6565b60405180910390f35b6103ca60048036038101906103c5919061229c565b610f43565b6040516103d7919061298e565b60405180910390f35b6103fa60048036038101906103f591906124e6565b610f8c565b60405161040791906127e6565b60405180910390f35b610418610fbf565b60405161042591906128ac565b60405180910390f35b610448600480360381019061044391906124e6565b611051565b604051610455919061298e565b60405180910390f35b610478600480360381019061047391906123df565b611082565b005b610494600480360381019061048f919061229c565b6111a0565b6040516104a1919061298e565b60405180910390f35b6104c460048036038101906104bf919061241f565b6111b8565b005b6104e060048036038101906104db91906124e6565b61134d565b6040516104ed91906127e6565b60405180910390f35b610510600480360381019061050b919061235c565b611380565b005b61051a6113a7565b6040516105279190612891565b60405180910390f35b61054a600480360381019061054591906124e6565b6113ba565b60405161055791906128ac565b60405180910390f35b61057a600480360381019061057591906124e6565b61150c565b60405161058a94939291906129a9565b60405180910390f35b6105ad60048036038101906105a891906122c9565b6115d4565b6040516105ba9190612876565b60405180910390f35b6105cb611668565b6040516105d8919061298e565b60405180910390f35b60007f80ac58cd000000000000000000000000000000000000000000000000000000007bffffffffffffffffffffffffffffffffffffffffffffffffffffffff1916827bffffffffffffffffffffffffffffffffffffffffffffffffffffffff191614806106ac57507f5b5e139f000000000000000000000000000000000000000000000000000000007bffffffffffffffffffffffffffffffffffffffffffffffffffffffff1916827bffffffffffffffffffffffffffffffffffffffffffffffffffffffff1916145b806106bc57506106bb8261166e565b5b9050919050565b6060600080546106d290612caf565b80601f01602080910402602001604051908101604052809291908181526020018280546106fe90612caf565b801561074b5780601f106107205761010080835404028352916020019161074b565b820191906000526020600020905b81548152906001019060200180831161072e57829003601f168201915b5050505050905090565b6000600880549050821061076857600080fd5b600e600083815260200190815260200160002060009054906101000a900473ffffffffffffffffffffffffffffffffffffffff169050919050565b81818173ffffffffffffffffffffffffffffffffffffffff16600d600083815260200190815260200160002060009054906101000a900473ffffffffffffffffffffffffffffffffffffffff1673ffffffffffffffffffffffffffffffffffffffff1614610846576040517f08c379a000000000000000000000000000000000000000000000000000000000815260040161083d9061290e565b60405180910390fd5b83600073ffffffffffffffffffffffffffffffffffffffff168173ffffffffffffffffffffffffffffffffffffffff1614156108b7576040517f08c379a00000000000000000000000000000000000000000000000000000000081526004016108ae906128ee565b60405180910390fd5b6108c185856116d8565b838573ffffffffffffffffffffffffffffffffffffffff16600d600087815260200190815260200160002060009054906101000a900473ffffffffffffffffffffffffffffffffffffffff1673ffffffffffffffffffffffffffffffffffffffff167f8c5be1e5ebec7d5bd14f71427d1e84f3dd0314c0f7b2291e5b200ac8c7c3b92560405160405180910390a45050505050565b600a60205280600052604060002060009150905080600001549080600101549080600201549080600301805461098b90612caf565b80601f01602080910402602001604051908101604052809291908181526020018280546109b790612caf565b8015610a045780601f106109d957610100808354040283529160200191610a04565b820191906000526020600020905b8154815290600101906020018083116109e757829003601f168201915b5050505050905084565b6000808611610a1c57600080fd5b848411610a2857600080fd5b600f60008473ffffffffffffffffffffffffffffffffffffffff1673ffffffffffffffffffffffffffffffffffffffff16815260200190815260200160002060008373ffffffffffffffffffffffffffffffffffffffff1673ffffffffffffffffffffffffffffffffffffffff16815260200190815260200160002060009054906101000a900460ff16905095945050505050565b610ac98484848461172e565b6000600760006101000a81548160ff02191690836001811115610aef57610aee612dea565b5b021790555050505050565b6000600880549050905090565b82818173ffffffffffffffffffffffffffffffffffffffff16600d600083815260200190815260200160002060009054906101000a900473ffffffffffffffffffffffffffffffffffffffff1673ffffffffffffffffffffffffffffffffffffffff1614610baa576040517f08c379a0000000000000000000000000000000000000000000000000000000008152600401610ba19061290e565b60405180910390fd5b83600073ffffffffffffffffffffffffffffffffffffffff168173ffffffffffffffffffffffffffffffffffffffff161415610c1b576040517f08c379a0000000000000000000000000000000000000000000000000000000008152600401610c12906128ee565b60405180910390fd5b6000600d600086815260200190815260200160002060009054906101000a900473ffffffffffffffffffffffffffffffffffffffff1690508073ffffffffffffffffffffffffffffffffffffffff168673ffffffffffffffffffffffffffffffffffffffff161415610c8c57600080fd5b8673ffffffffffffffffffffffffffffffffffffffff163373ffffffffffffffffffffffffffffffffffffffff161480610ccc5750610ccb3386611817565b5b80610d5e57503073ffffffffffffffffffffffffffffffffffffffff1663e985e9c582336040518363ffffffff1660e01b8152600401610d0d929190612801565b60206040518083038186803b158015610d2557600080fd5b505afa158015610d39573d6000803e3d6000fd5b505050506040513d601f19601f82011682018060405250810190610d5d919061245f565b5b610d6757600080fd5b6008805490508510610dae576040517f08c379a0000000000000000000000000000000000000000000000000000000008152600401610da59061296e565b60405180910390fd5b610db9878787611883565b50505050505050565b600b6020528060005260406000206000915090505481565b610df583838360405180602001604052806000815250611380565b505050565b60008060006060600060088681548110610e1757610e16612e48565b5b9060005260206000209060040201604051806080016040529081600082015481526020016001820154815260200160028201548152602001600382018054610e5e90612caf565b80601f0160208091040260200160405190810160405280929190818152602001828054610e8a90612caf565b8015610ed75780601f10610eac57610100808354040283529160200191610ed7565b820191906000526020600020905b815481529060010190602001808311610eba57829003601f168201915b505050505081525050905080600001518160200151826040015183606001519450945094509450509193509193565b6000600d600083815260200190815260200160002060009054906101000a900473ffffffffffffffffffffffffffffffffffffffff169050919050565b6000600c60008373ffffffffffffffffffffffffffffffffffffffff1673ffffffffffffffffffffffffffffffffffffffff168152602001908152602001600020549050919050565b600d6020528060005260406000206000915054906101000a900473ffffffffffffffffffffffffffffffffffffffff1681565b606060018054610fce90612caf565b80601f0160208091040260200160405190810160405280929190818152602001828054610ffa90612caf565b80156110475780601f1061101c57610100808354040283529160200191611047565b820191906000526020600020905b81548152906001019060200180831161102a57829003601f168201915b5050505050905090565b600061107b606461106d61271085611a2c90919063ffffffff16565b611a4290919063ffffffff16565b9050919050565b81600073ffffffffffffffffffffffffffffffffffffffff168173ffffffffffffffffffffffffffffffffffffffff1614156110f3576040517f08c379a00000000000000000000000000000000000000000000000000000000081526004016110ea906128ee565b60405180910390fd5b3373ffffffffffffffffffffffffffffffffffffffff168373ffffffffffffffffffffffffffffffffffffffff16141561112c57600080fd5b6111368383611a58565b8273ffffffffffffffffffffffffffffffffffffffff163373ffffffffffffffffffffffffffffffffffffffff167f17307eab39ab6107e8899845ad3d59bd9653f200f220920489ca2b5937696c31846040516111939190612876565b60405180910390a3505050565b600c6020528060005260406000206000915090505481565b33818173ffffffffffffffffffffffffffffffffffffffff16600d600083815260200190815260200160002060009054906101000a900473ffffffffffffffffffffffffffffffffffffffff1673ffffffffffffffffffffffffffffffffffffffff161461125b576040517f08c379a00000000000000000000000000000000000000000000000000000000081526004016112529061290e565b60405180910390fd5b83600073ffffffffffffffffffffffffffffffffffffffff168173ffffffffffffffffffffffffffffffffffffffff1614156112cc576040517f08c379a00000000000000000000000000000000000000000000000000000000081526004016112c3906128ee565b60405180910390fd5b3073ffffffffffffffffffffffffffffffffffffffff168573ffffffffffffffffffffffffffffffffffffffff16141561133b576040517f08c379a0000000000000000000000000000000000000000000000000000000008152600401611332906128ce565b60405180910390fd5b611346338686611883565b5050505050565b600e6020528060005260406000206000915054906101000a900473ffffffffffffffffffffffffffffffffffffffff1681565b61138c33858585611af0565b61139557600080fd5b6113a184848484611c8b565b50505050565b600760009054906101000a900460ff1681565b60606113c582611cb1565b611404576040517f08c379a00000000000000000000000000000000000000000000000000000000081526004016113fb9061292e565b60405180910390fd5b600060066000848152602001908152602001600020805461142490612caf565b80601f016020809104026020016040519081016040528092919081815260200182805461145090612caf565b801561149d5780601f106114725761010080835404028352916020019161149d565b820191906000526020600020905b81548152906001019060200180831161148057829003601f168201915b5050505050905060006114ae611d1d565b90506000815114156114c4578192505050611507565b6000825111156114f95780826040516020016114e19291906127c2565b60405160208183030381529060405292505050611507565b61150284611d34565b925050505b919050565b6008818154811061151c57600080fd5b906000526020600020906004020160009150905080600001549080600101549080600201549080600301805461155190612caf565b80601f016020809104026020016040519081016040528092919081815260200182805461157d90612caf565b80156115ca5780601f1061159f576101008083540402835291602001916115ca565b820191906000526020600020905b8154815290600101906020018083116115ad57829003601f168201915b5050505050905084565b6000600f60008473ffffffffffffffffffffffffffffffffffffffff1673ffffffffffffffffffffffffffffffffffffffff16815260200190815260200160002060008373ffffffffffffffffffffffffffffffffffffffff1673ffffffffffffffffffffffffffffffffffffffff16815260200190815260200160002060009054906101000a900460ff16905092915050565b60095481565b60007f01ffc9a7000000000000000000000000000000000000000000000000000000007bffffffffffffffffffffffffffffffffffffffffffffffffffffffff1916827bffffffffffffffffffffffffffffffffffffffffffffffffffffffff1916149050919050565b81600e600083815260200190815260200160002060006101000a81548173ffffffffffffffffffffffffffffffffffffffff021916908373ffffffffffffffffffffffffffffffffffffffff1602179055505050565b60006040518060800160405280868152602001858152602001848152602001838152509050600881908060018154018082558091505060019003906000526020600020906004020160009091909190915060008201518160000155602082015181600101556040820151816002015560608201518160030190805190602001906117b992919061209b565b5050506117d26001600954611ddb90919063ffffffff16565b507fbba6bb7471625b3ee88fef3cd3c2f54f4aead1e22e6ac34f14afeceac35f62368585858560405161180894939291906129a9565b60405180910390a15050505050565b60008273ffffffffffffffffffffffffffffffffffffffff16600e600084815260200190815260200160002060009054906101000a900473ffffffffffffffffffffffffffffffffffffffff1673ffffffffffffffffffffffffffffffffffffffff1614905092915050565b6118d66001600b60008573ffffffffffffffffffffffffffffffffffffffff1673ffffffffffffffffffffffffffffffffffffffff16815260200190815260200160002054611ddb90919063ffffffff16565b50600d600082815260200190815260200160002060009054906101000a900473ffffffffffffffffffffffffffffffffffffffff169150600073ffffffffffffffffffffffffffffffffffffffff168373ffffffffffffffffffffffffffffffffffffffff16146119cc576119946001600b60008673ffffffffffffffffffffffffffffffffffffffff1673ffffffffffffffffffffffffffffffffffffffff16815260200190815260200160002054611df190919063ffffffff16565b50600e600082815260200190815260200160002060006101000a81549073ffffffffffffffffffffffffffffffffffffffff02191690555b808273ffffffffffffffffffffffffffffffffffffffff168473ffffffffffffffffffffffffffffffffffffffff167fddf252ad1be2c89b69c2b068fc378daa952ba7f163c4a11628f55a4df523b3ef60405160405180910390a4505050565b60008183611a3a9190612b15565b905092915050565b60008183611a509190612b46565b905092915050565b80600f60003373ffffffffffffffffffffffffffffffffffffffff1673ffffffffffffffffffffffffffffffffffffffff16815260200190815260200160002060008473ffffffffffffffffffffffffffffffffffffffff1673ffffffffffffffffffffffffffffffffffffffff16815260200190815260200160002060006101000a81548160ff0219169083151502179055505050565b60006008805490508210611b0357600080fd5b600073ffffffffffffffffffffffffffffffffffffffff168373ffffffffffffffffffffffffffffffffffffffff161415611b3d57600080fd5b6000600d600084815260200190815260200160002060009054906101000a900473ffffffffffffffffffffffffffffffffffffffff1690508073ffffffffffffffffffffffffffffffffffffffff168473ffffffffffffffffffffffffffffffffffffffff161415611bae57600080fd5b8473ffffffffffffffffffffffffffffffffffffffff168673ffffffffffffffffffffffffffffffffffffffff161480611bee5750611bed8684611817565b5b80611c8057503073ffffffffffffffffffffffffffffffffffffffff1663e985e9c582886040518363ffffffff1660e01b8152600401611c2f929190612801565b60206040518083038186803b158015611c4757600080fd5b505afa158015611c5b573d6000803e3d6000fd5b505050506040513d601f19601f82011682018060405250810190611c7f919061245f565b5b915050949350505050565b611c96848484611883565b611ca284848484611e07565b611cab57600080fd5b50505050565b60008073ffffffffffffffffffffffffffffffffffffffff166002600084815260200190815260200160002060009054906101000a900473ffffffffffffffffffffffffffffffffffffffff1673ffffffffffffffffffffffffffffffffffffffff1614159050919050565b606060405180602001604052806000815250905090565b6060611d3f82611cb1565b611d7e576040517f08c379a0000000000000000000000000000000000000000000000000000000008152600401611d759061294e565b60405180910390fd5b6000611d88611d1d565b90506000815111611da85760405180602001604052806000815250611dd3565b80611db284611f21565b604051602001611dc39291906127c2565b6040516020818303038152906040525b915050919050565b60008183611de99190612abf565b905092915050565b60008183611dff9190612ba0565b905092915050565b6000611e1284612082565b611e1f5760019050611f19565b60008473ffffffffffffffffffffffffffffffffffffffff1663150b7a02338887876040518563ffffffff1660e01b8152600401611e60949392919061282a565b602060405180830381600087803b158015611e7a57600080fd5b505af1158015611e8e573d6000803e3d6000fd5b505050506040513d601f19601f82011682018060405250810190611eb291906124b9565b90507f150b7a023d4804d13e8c85fb27262cb750cf6ba9f9dd3bb30d90f482ceeb4b1f7bffffffffffffffffffffffffffffffffffffffffffffffffffffffff1916817bffffffffffffffffffffffffffffffffffffffffffffffffffffffff1916149150505b949350505050565b60606000821415611f69576040518060400160405280600181526020017f3000000000000000000000000000000000000000000000000000000000000000815250905061207d565b600082905060005b60008214611f9b578080611f8490612d12565b915050600a82611f949190612b15565b9150611f71565b60008167ffffffffffffffff811115611fb757611fb6612e77565b5b6040519080825280601f01601f191660200182016040528015611fe95781602001600182028036833780820191505090505b5090505b60008514612076576001826120029190612ba0565b9150600a856120119190612d5b565b603061201d9190612abf565b60f81b81838151811061203357612032612e48565b5b60200101907effffffffffffffffffffffffffffffffffffffffffffffffffffffffffffff1916908160001a905350600a8561206f9190612b15565b9450611fed565b8093505050505b919050565b600080823b905060008163ffffffff1611915050919050565b8280546120a790612caf565b90600052602060002090601f0160209004810192826120c95760008555612110565b82601f106120e257805160ff1916838001178555612110565b82800160010185558215612110579182015b8281111561210f5782518255916020019190600101906120f4565b5b50905061211d9190612121565b5090565b5b8082111561213a576000816000905550600101612122565b5090565b600061215161214c84612a1a565b6129f5565b90508281526020810184848401111561216d5761216c612eab565b5b612178848285612c6d565b509392505050565b600061219361218e84612a4b565b6129f5565b9050828152602081018484840111156121af576121ae612eab565b5b6121ba848285612c6d565b509392505050565b6000813590506121d18161306d565b92915050565b6000813590506121e681613084565b92915050565b6000815190506121fb81613084565b92915050565b6000813590506122108161309b565b92915050565b6000815190506122258161309b565b92915050565b600082601f8301126122405761223f612ea6565b5b813561225084826020860161213e565b91505092915050565b600082601f83011261226e5761226d612ea6565b5b813561227e848260208601612180565b91505092915050565b600081359050612296816130b2565b92915050565b6000602082840312156122b2576122b1612eb5565b5b60006122c0848285016121c2565b91505092915050565b600080604083850312156122e0576122df612eb5565b5b60006122ee858286016121c2565b92505060206122ff858286016121c2565b9150509250929050565b60008060006060848603121561232257612321612eb5565b5b6000612330868287016121c2565b9350506020612341868287016121c2565b925050604061235286828701612287565b9150509250925092565b6000806000806080858703121561237657612375612eb5565b5b6000612384878288016121c2565b9450506020612395878288016121c2565b93505060406123a687828801612287565b925050606085013567ffffffffffffffff8111156123c7576123c6612eb0565b5b6123d38782880161222b565b91505092959194509250565b600080604083850312156123f6576123f5612eb5565b5b6000612404858286016121c2565b9250506020612415858286016121d7565b9150509250929050565b6000806040838503121561243657612435612eb5565b5b6000612444858286016121c2565b925050602061245585828601612287565b9150509250929050565b60006020828403121561247557612474612eb5565b5b6000612483848285016121ec565b91505092915050565b6000602082840312156124a2576124a1612eb5565b5b60006124b084828501612201565b91505092915050565b6000602082840312156124cf576124ce612eb5565b5b60006124dd84828501612216565b91505092915050565b6000602082840312156124fc576124fb612eb5565b5b600061250a84828501612287565b91505092915050565b600080600080600060a0868803121561252f5761252e612eb5565b5b600061253d88828901612287565b955050602061254e88828901612287565b945050604061255f88828901612287565b9350506060612570888289016121c2565b9250506080612581888289016121c2565b9150509295509295909350565b600080600080608085870312156125a8576125a7612eb5565b5b60006125b687828801612287565b94505060206125c787828801612287565b93505060406125d887828801612287565b925050606085013567ffffffffffffffff8111156125f9576125f8612eb0565b5b61260587828801612259565b91505092959194509250565b61261a81612bd4565b82525050565b61262981612be6565b82525050565b600061263a82612a7c565b6126448185612a92565b9350612654818560208601612c7c565b61265d81612eba565b840191505092915050565b61267181612c5b565b82525050565b600061268282612a87565b61268c8185612aa3565b935061269c818560208601612c7c565b6126a581612eba565b840191505092915050565b60006126bb82612a87565b6126c58185612ab4565b93506126d5818560208601612c7c565b80840191505092915050565b60006126ee602383612aa3565b91506126f982612ecb565b604082019050919050565b6000612711601783612aa3565b915061271c82612f1a565b602082019050919050565b6000612734602683612aa3565b915061273f82612f43565b604082019050919050565b6000612757603183612aa3565b915061276282612f92565b604082019050919050565b600061277a602f83612aa3565b915061278582612fe1565b604082019050919050565b600061279d601283612aa3565b91506127a882613030565b602082019050919050565b6127bc81612c51565b82525050565b60006127ce82856126b0565b91506127da82846126b0565b91508190509392505050565b60006020820190506127fb6000830184612611565b92915050565b60006040820190506128166000830185612611565b6128236020830184612611565b9392505050565b600060808201905061283f6000830187612611565b61284c6020830186612611565b61285960408301856127b3565b818103606083015261286b818461262f565b905095945050505050565b600060208201905061288b6000830184612620565b92915050565b60006020820190506128a66000830184612668565b92915050565b600060208201905081810360008301526128c68184612677565b905092915050565b600060208201905081810360008301526128e7816126e1565b9050919050565b6000602082019050818103600083015261290781612704565b9050919050565b6000602082019050818103600083015261292781612727565b9050919050565b600060208201905081810360008301526129478161274a565b9050919050565b600060208201905081810360008301526129678161276d565b9050919050565b6000602082019050818103600083015261298781612790565b9050919050565b60006020820190506129a360008301846127b3565b92915050565b60006080820190506129be60008301876127b3565b6129cb60208301866127b3565b6129d860408301856127b3565b81810360608301526129ea8184612677565b905095945050505050565b60006129ff612a10565b9050612a0b8282612ce1565b919050565b6000604051905090565b600067ffffffffffffffff821115612a3557612a34612e77565b5b612a3e82612eba565b9050602081019050919050565b600067ffffffffffffffff821115612a6657612a65612e77565b5b612a6f82612eba565b9050602081019050919050565b600081519050919050565b600081519050919050565b600082825260208201905092915050565b600082825260208201905092915050565b600081905092915050565b6000612aca82612c51565b9150612ad583612c51565b9250827fffffffffffffffffffffffffffffffffffffffffffffffffffffffffffffffff03821115612b0a57612b09612d8c565b5b828201905092915050565b6000612b2082612c51565b9150612b2b83612c51565b925082612b3b57612b3a612dbb565b5b828204905092915050565b6000612b5182612c51565b9150612b5c83612c51565b9250817fffffffffffffffffffffffffffffffffffffffffffffffffffffffffffffffff0483118215151615612b9557612b94612d8c565b5b828202905092915050565b6000612bab82612c51565b9150612bb683612c51565b925082821015612bc957612bc8612d8c565b5b828203905092915050565b6000612bdf82612c31565b9050919050565b60008115159050919050565b60007fffffffff0000000000000000000000000000000000000000000000000000000082169050919050565b6000819050612c2c82613059565b919050565b600073ffffffffffffffffffffffffffffffffffffffff82169050919050565b6000819050919050565b6000612c6682612c1e565b9050919050565b82818337600083830152505050565b60005b83811015612c9a578082015181840152602081019050612c7f565b83811115612ca9576000848401525b50505050565b60006002820490506001821680612cc757607f821691505b60208210811415612cdb57612cda612e19565b5b50919050565b612cea82612eba565b810181811067ffffffffffffffff82111715612d0957612d08612e77565b5b80604052505050565b6000612d1d82612c51565b91507fffffffffffffffffffffffffffffffffffffffffffffffffffffffffffffffff821415612d5057612d4f612d8c565b5b600182019050919050565b6000612d6682612c51565b9150612d7183612c51565b925082612d8157612d80612dbb565b5b828206905092915050565b7f4e487b7100000000000000000000000000000000000000000000000000000000600052601160045260246000fd5b7f4e487b7100000000000000000000000000000000000000000000000000000000600052601260045260246000fd5b7f4e487b7100000000000000000000000000000000000000000000000000000000600052602160045260246000fd5b7f4e487b7100000000000000000000000000000000000000000000000000000000600052602260045260246000fd5b7f4e487b7100000000000000000000000000000000000000000000000000000000600052603260045260246000fd5b7f4e487b7100000000000000000000000000000000000000000000000000000000600052604160045260246000fd5b600080fd5b600080fd5b600080fd5b600080fd5b6000601f19601f8301169050919050565b7f43616e6e6f74207472616e7366657220746f20697473206f776e20636f6e747260008201527f6163740000000000000000000000000000000000000000000000000000000000602082015250565b7f43616e6e6f7420757365207a65726f2061646472657373000000000000000000600082015250565b7f43616e206f6e6c792062652063616c6c656420627920636c61696d616e74206f60008201527f66206c6f616e0000000000000000000000000000000000000000000000000000602082015250565b7f45524337323155524953746f726167653a2055524920717565727920666f722060008201527f6e6f6e6578697374656e7420746f6b656e000000000000000000000000000000602082015250565b7f4552433732314d657461646174613a2055524920717565727920666f72206e6f60008201527f6e6578697374656e7420746f6b656e0000000000000000000000000000000000602082015250565b7f546f6b656e204944206e6f742056414c49440000000000000000000000000000600082015250565b6002811061306a57613069612dea565b5b50565b61307681612bd4565b811461308157600080fd5b50565b61308d81612be6565b811461309857600080fd5b50565b6130a481612bf2565b81146130af57600080fd5b50565b6130bb81612c51565b81146130c657600080fd5b5056fea2646970667358221220048ba3c7551a8898e1ffc9797c3c94b987abdf468ac78f00ab694587ba52453164736f6c63430008060033",
  "immutableReferences": {},
  "source": "// SPDX-License-Identifier: MIT\npragma solidity ^0.8.6;\n\nimport \"@openzeppelin/contracts/token/ERC721/extensions/ERC721URIStorage.sol\";\nimport \"@openzeppelin/contracts/utils/math/SafeMath.sol\";\nimport \"@openzeppelin/contracts/token/ERC721/IERC721Receiver.sol\";\n\ncontract WarehouseReceipt is ERC721URIStorage {\n    using SafeMath for uint256;\n\n    enum LoanState {\n        START,\n        END\n    }\n\n    LoanState public state;\n\n    struct Receipt {\n        uint256 warehouseId;\n    }\n\n    struct Loan {\n        uint256 id;\n        uint256 duration;\n        uint256 amount;\n        string details;\n    }\n\n    Loan[] public loans;\n\n    uint256 public newLoanId;\n    bytes4 internal constant MAGIC_ERC721_RECEIVED =\n        bytes4(keccak256(\"onERC721Received(address,address,uint256,bytes)\"));\n\n    bytes4 private constant _INTERFACE_ID_ERC721 = 0x80ac58cd;\n    bytes4 private constant _INTERFACE_ID_ERC165 = 0x01ffc9a7;\n\n    mapping(uint256 => Loan) public loanIndex;\n    mapping(address => uint256) public balances;\n    mapping(address => uint256) public loanIncites;\n    mapping(uint256 => address) public loanToId;\n    mapping(uint256 => address) public approvedLoan;\n    mapping(address => mapping(address => bool))\n        private _collateralManagerApproval;\n\n    event LoanCreated(\n        uint256 loanId,\n        uint256 duration,\n        uint256 amount,\n        string details\n    );\n\n    constructor(string memory name, string memory symbol)\n        ERC721(name, symbol)\n    {}\n\n    function createLoan(\n        uint256 id,\n        uint256 duration,\n        uint256 amount,\n        string memory details\n    ) external {\n        _createLoan(id, duration, amount, details);\n        state = LoanState.START;\n    }\n\n    function getLoan(uint256 id)\n        external\n        view\n        returns (\n            uint256,\n            uint256,\n            uint256,\n            string memory\n        )\n    {\n        Loan memory loan = loans[id];\n        return (loan.id, loan.duration, loan.amount, loan.details);\n    }\n\n    function totalSupply() external view returns (uint256) {\n        return loans.length;\n    }\n\n    function balanceOf(address owner)\n        public\n        view\n        override\n        returns (uint256 balance)\n    {\n        return loanIncites[owner];\n    }\n\n    function ownerOf(uint256 tokenId)\n        public\n        view\n        override\n        returns (address owner)\n    {\n        return loanToId[tokenId];\n    }\n\n    /* \n        When you write require statements, ALWAYS include an error message at the end.\n        The compiler can run into issues later when migrating the smart contracts.\n     */\n\n    function transfer(address to, uint256 tokenId)\n        external\n        isOwner(msg.sender, tokenId)\n        noZeroAddress(to)\n    {\n        require(to != address(this), \"Cannot transfer to its own contract\");\n        _transfer(msg.sender, to, tokenId);\n    }\n\n    function approve(address _approved, uint256 _tokenId)\n        public\n        override\n        isOwner(_approved, _tokenId)\n        noZeroAddress(_approved)\n    {\n        _approve(_approved, _tokenId);\n        emit Approval(loanToId[_tokenId], _approved, _tokenId);\n    }\n\n    function setApprovalForAll(address operator, bool _approved)\n        public\n        override\n        noZeroAddress(operator)\n    {\n        require(operator != msg.sender);\n        _setApprovalForAll(operator, _approved);\n        emit ApprovalForAll(msg.sender, operator, _approved);\n    }\n\n    function getApproved(uint256 _tokenId)\n        public\n        view\n        override\n        returns (address)\n    {\n        require(_tokenId < loans.length);\n        return approvedLoan[_tokenId];\n    }\n\n    function isApprovedForAll(address _owner, address _operator)\n        public\n        view\n        override\n        returns (bool)\n    {\n        return _collateralManagerApproval[_owner][_operator];\n    }\n\n    function mintNFT(\n        uint256 receiptId,\n        uint256 amount,\n        uint256 collateral,\n        address _owner,\n        address _operator\n    ) external view returns (bool) {\n        require(receiptId > 0);\n        require(collateral > amount);\n        return _collateralManagerApproval[_owner][_operator];\n    }\n\n    function safeTransferFrom(\n        address _from,\n        address _to,\n        uint256 _tokenId\n    ) public override {\n        safeTransferFrom(_from, _to, _tokenId, \"\");\n    }\n\n    function safeTransferFrom(\n        address _from,\n        address _to,\n        uint256 _tokenId,\n        bytes memory data\n    ) public override {\n        require(_isApprovedOrOwner(msg.sender, _from, _to, _tokenId));\n        _safeTransfer(_from, _to, _tokenId, data);\n    }\n\n    function calculateFee(uint256 amount) external pure returns (uint256) {\n        //100 basis points = 1 pct\n        return (amount.div(10000)).mul(100);\n    }\n\n    function transferFrom(\n        address _from,\n        address _to,\n        uint256 _tokenId\n    ) public override isOwner(_from, _tokenId) noZeroAddress(_to) {\n        address owner = loanToId[_tokenId];\n        require(_to != owner);\n        require(\n            msg.sender == _from ||\n                approvedFor(msg.sender, _tokenId) ||\n                this.isApprovedForAll(owner, msg.sender)\n        );\n        require(_tokenId < loans.length, \"Token ID not VALID\");\n        _transfer(_from, _to, _tokenId);\n    }\n\n    function approvedFor(address claimant, uint256 tokenId)\n        internal\n        view\n        returns (bool)\n    {\n        return approvedLoan[tokenId] == claimant;\n    }\n\n    //Front End function in which Collateral Manager: approves, appraises, and documents asset\n    function _setApprovalForAll(address _operator, bool _approved) internal {\n        _collateralManagerApproval[msg.sender][_operator] = _approved;\n    }\n\n    //Assets must be in warehouse\n    function _checkERC721Support(\n        address _from,\n        address _to,\n        uint256 _tokenId,\n        bytes memory _data\n    ) internal returns (bool) {\n        if (!_isContract(_to)) {\n            return true;\n        }\n        bytes4 returnData = IERC721Receiver(_to).onERC721Received(\n            msg.sender,\n            _from,\n            _tokenId,\n            _data\n        );\n        return returnData == MAGIC_ERC721_RECEIVED;\n    }\n\n    function _isContract(address _to) internal view returns (bool) {\n        uint32 size;\n        assembly {\n            size := extcodesize(_to)\n        }\n        return size > 0;\n    }\n\n    function _transfer(\n        address _from,\n        address _to,\n        uint256 _tokenId\n    ) internal override {\n        balances[_to].add(1);\n        _to = loanToId[_tokenId];\n        if (_from != address(0)) {\n            balances[_from].sub(1);\n            delete approvedLoan[_tokenId];\n        }\n        emit Transfer(_from, _to, _tokenId);\n    }\n\n    function _approve(address _approved, uint256 _tokenId) internal override {\n        approvedLoan[_tokenId] = _approved;\n    }\n\n    function _isApprovedOrOwner(\n        address spender,\n        address _from,\n        address _to,\n        uint256 _tokenId\n    ) private view returns (bool) {\n        require(_tokenId < loans.length);\n        require(_to != address(0));\n        address owner = loanToId[_tokenId];\n        require(_to != owner);\n        //Error at approve(spender, _tokenId)\n        return (spender == _from ||\n            approvedFor(spender, _tokenId) ||\n            this.isApprovedForAll(owner, spender));\n    }\n\n    function _safeTransfer(\n        address from,\n        address to,\n        uint256 tokenId,\n        bytes memory _data\n    ) internal override {\n        _transfer(from, to, tokenId);\n        require(_checkERC721Support(from, to, tokenId, _data));\n    }\n\n    function _createLoan(\n        uint256 id,\n        uint256 duration,\n        uint256 amount,\n        string memory details\n    ) internal {\n        Loan memory _loan = Loan(id, duration, amount, details);\n        loans.push(_loan);\n        newLoanId.add(1);\n        emit LoanCreated(id, duration, amount, details);\n    }\n\n    modifier noZeroAddress(address _addr) {\n        require(_addr != address(0), \"Cannot use zero address\");\n        _;\n    }\n\n    modifier isOwner(address _claimant, uint256 _tokenId) {\n        require(\n            loanToId[_tokenId] == _claimant,\n            \"Can only be called by claimant of loan\"\n        );\n        _;\n    }\n}\n",
  "sourcePath": "/Users/heyyehudes/Documents/Farmbit_Demo/NFT/contracts/WarehouseReceipt.sol",
  "compiler": {
    "name": "solc",
    "version": "0.8.6+commit.11564f7e.Emscripten.clang"
  },
  "schemaVersion": "3.3.1",
  "updatedAt": "2021-08-17T19:08:59.088Z",
  "networkType": "ethereum",
  "devdoc": {
    "kind": "dev",
    "methods": {
      "balanceOf(address)": {
        "details": "See {IERC721-balanceOf}."
      },
      "name()": {
        "details": "See {IERC721Metadata-name}."
      },
      "ownerOf(uint256)": {
        "details": "See {IERC721-ownerOf}."
      },
      "supportsInterface(bytes4)": {
        "details": "See {IERC165-supportsInterface}."
      },
      "symbol()": {
        "details": "See {IERC721Metadata-symbol}."
      },
      "tokenURI(uint256)": {
        "details": "See {IERC721Metadata-tokenURI}."
      }
    },
    "version": 1
  },
  "userdoc": {
    "kind": "user",
    "methods": {},
    "version": 1
  }
}